:020000040800F2
:1000000000000520B50D0008790B00087B0B0008E7
:100010007D0B00087F0B0008810B0008000000002A
:10002000000000000000000000000000830B00083A
:10003000850B000800000000870B0008890B0008F2
:10004000050E0008050E0008050E0008050E000844
:10005000050E0008050E0008050E0008050E000834
:10006000050E0008050E0008050E0008050E000824
:10007000050E0008050E0008050E0008050E000814
:10008000050E0008050E0008050E0008050E000804
:10009000050E0008050E0008050E0008050E0008F4
:1000A000050E0008050E0008050E0008050E0008E4
:1000B000050E00088D0B0008050E0008050E00084F
:1000C000050E0008050E0008050E0008050E0008C4
:1000D000050E0008C90B0008050E0008050E0008F3
:1000E000050E0008050E0008050E0008050E0008A4
:1000F000050E0008050E0008050E0008050E000894
:10010000050E0008050E0008050E0008050E000883
:10011000050E0008050E0008050E0008050E000873
:10012000050E0008050E0008050E0008050E000863
:10013000050E0008050E0008050E0008050E000853
:10014000050E0008050E0008050E0008050E000843
:10015000050E0008050E0008050E0008050E000833
:10016000050E0008050E0008050E0008050E000823
:10017000050E0008050E0008000000000000000049
:10018000050E0008050E0008050E0008050E000803
:10019000050E0008050E000800000000050E00080E
:1001A000050E0008050E0008000000000000000019
:1001B000050E00080000000000000000050E000809
:1001C000050E0008050E0008050E0008050E0008C3
:0801D000050E0008050E0008F1
:1001D80010B5054C237833B9044B13B10448AFF379
:1001E80000800123237010BD0400002000000000DF
:1001F800500E000808B5034B1BB103490348AFF381
:10020800008008BD0000000008000020500E000813
:100218002DE9F0430A6892FAA2F44FF0010EB4FAFD
:1002280084F403250F2732FA04F30DD14B68013B00
:10023800012B06D84368C96823EA02034A431A43D4
:1002480042600120BDE8F0830EFA04F3134069D040
:10025800D1F80480D0F8009093FAA3FCBCFA8CFC87
:1002680093FAA3F6B6FA86F64FEA4C0C05FA0CFC9C
:10027800760029EA0C0C08FA06F64CEA060606602F
:1002880008F1FF36012E16D8866893FAA3FCBCFA4B
:100298008CFC93FAA3F94FEA4C0C05FA0CFC26EAFD
:1002A8000C0CB9FA89F98E684FEA490906FA09F679
:1002B8004CEA06068660C66893FAA3FCBCFA8CFC76
:1002C80093FAA3F94FEA4C0C05FA0CFC26EA0C0C3D
:1002D800B9FA89F90E694FEA490906FA09F64CEAAA
:1002E8000606B8F1020FC6601CD193FAA3F6B6FA57
:1002F80086F6072ED1F814C016DCD0F8208093FAC1
:10030800A3F6B6FA86F693FAA3F3B3FA83F3B60024
:1003180007FA06F69B0028EA06060CFA03FC46EAEA
:100328000C06066201347EE7D0F824801B0A93FA93
:10033800A3F6B6FA86F693FAA3F3B3FA83F3B600F4
:1003480007FA06F69B0028EA06060CFA03F333437D
:100358004362E7E7034B044A9B68C3F30313D35C88
:10036800D840704700380240680E0008034B044A22
:100378009B68C3F38223D35CD8407047003802409F
:10038800780E0008034B044A9B68C3F34233D35CDE
:10039800D840704700380240780E00080F4B104ACA
:1003A800596810B50F4C01F48001002908BF224696
:1003B800082810D1596858685B68C3F30143C0F333
:1003C8008810013301F03F015B00B2FBF1F25043AA
:1003D800B0FBF3F010BD002010BD00BF0038024094
:1003E80000127A000024F400064B986800F00C0014
:1003F800042803D0082803D00348704703487047EF
:10040800FFF7CCBF003802400024F40000127A0045
:1004180010B50446FFF7E8FF2060FFF79BFF606018
:10042800FFF7A4FFA0606068FFF7ACFFE06010BDB5
:1004380003685B0670B5024624D491E8480033434C
:100448008E684C690568086A3343CE6833430E6981
:1004580033438E6923433343CE6925F47F453343C1
:10046800034325F0BF052B431360536823F00403AF
:1004780043EA1443B0F5005F536001D18B8C1361DC
:10048800012000E00020D36923F40063D36170BD2C
:100498002F4A0368904212D0B0F1804F0FD0A2F5D6
:1004A8007C4290420BD002F58062904207D002F560
:1004B8008062904203D002F57842904219D14A688E
:1004C80023F070031343224A904229D0B0F1804FA1
:1004D80026D0A2F57C42904222D002F5806290425A
:1004E8001ED002F5806290421AD002F578429042FE
:1004F80016D0184A904213D002F5806290420FD06D
:1005080002F5806290420BD0A2F59832904207D053
:1005180002F58062904203D002F58062904203D1D6
:10052800CA6823F44073134303608B68C3620B8863
:100538008362074B984203D003F58063984201D148
:100548000B7C0363436943F0010343610120704757
:100558000000014000400140102930B566D003D8A2
:1005680001292FD0002030BDB1F5807F00F09480A4
:10057800B1F5805FF6D1036A156823F480530362EE
:10058800036A4468C16921F4E64141EA0521156915
:1005980023F4005343EA0533556823F4805343EAB0
:1005A8000533584DA84203D005F58065A84204D10B
:1005B800956924F4804444EA8514D2684460C16192
:1005C800026430E0036A156823F001030362036ADA
:1005D8004168846924F073042C43156923F00203ED
:1005E8002B43556823F001032B43464DA84203D003
:1005F80005F58065A84212D1556923F0080343EA3E
:100608008503956823F0040343EA8503956921F47B
:1006180080712943D56921F4007141EA4501D26806
:100628004160846142630362012030BD036A15683A
:1006380023F010030362036A4168846924F4E644E2
:1006480044EA0524156923F0200343EA0513556895
:1006580023F0100343EA05132A4DA84203D005F5F9
:100668008065A84213D1556923F0800343EA8513B6
:10067800956823F0400343EA8513956921F4806166
:1006880041EA8501D56921F4006141EAC501D268D2
:10069800416084618263C6E7036A156823F4807346
:1006A8000362036A4168C46924F073042C43156922
:1006B80023F4007343EA0523556823F4807343EA5F
:1006C8000523104DA84203D005F58065A84213D133
:1006D800556923F4006343EA8523956823F480630E
:1006E80043EA8523956921F4805141EA0511D569CA
:1006F80021F4005141EA4511D2684160C461C263E6
:1007080091E700BF0000014030B5C3689B0485B085
:1007180004460D4602D5002005B030BD4B68C968B7
:10072800C2680B4329690B43A96922F416420B439B
:1007380022F00C021343C3600369AA6823F44053F0
:100748001343036143696A6923F4407313434361A4
:100758006846FFF75DFE2F4B9C4225D1039B002B7B
:10076800D9D029680029D6D0AA69B2F5004F4FF030
:1007780019023ED15A434900B2FBF1F26421B2FB9F
:10078800F1F001FB1023DB003233B3FBF1F39BB232
:1007980003F007025B0002EB001203F4F873134442
:1007A8009BB2A3600120B7E71B4B9C4201D1029B7F
:1007B800D5E71A4B9C42FAD003F54C439C42CDD066
:1007C800A3F548439C42F2D003F580639C42EED0E7
:1007D80003F520539C42EAD003F580639C42E6D09F
:1007E80003F51C439C42E2D003F580639C4292D1FE
:1007F800DDE7534364228900B3FBF1F3B3FBF2F165
:1008080002FB11331B013233B3FBF2F303EB011389
:10081800C6E700BF00100140004400400048004007
:100828004FF47A73B0FBF3F0034B002201385860A1
:100838009A6005221A60704710E000E0014B1860CA
:10084800704700BF00000020054B1A6B02431A6373
:100858001B6B82B018400190019B02B0704700BF2B
:100868000038024070B5802086B0FFF7EDFF012008
:10087800FFF7EAFF0220FFF7E7FF1048104D4FF49B
:10088800E02383614FF08063AB61002407230126D6
:1008980069468DE84800029403940494FFF7B8FC75
:1008A8004FF48063694628468DE848000294039413
:1008B8000494FFF7ADFC06B070BD00BF0000024015
:1008C80000040240024BD868C0F30220704700BF02
:1008D80000ED00E000207047304A136823F00F0352
:1008E80043F0030310B51360136803F00F03032BE1
:1008F80000D0FEE72A4A136843F440431360294BAB
:100908001A6842F480321A601A689103FCD55A6852
:1009180025491140254A0A435A605A6822F4403250
:100928005A601A6842F080721A601E4B1A68920167
:10093800FCD59A681B4C22F0F0029A609A6822F45F
:10094800E05242F4A0529A609A6822F460429A6097
:100958009A6822F0030242F002029A60A36803F048
:100968000C03082BFAD11248FFF75AFF114A104816
:10097800136843F004031360FFF760FFD4F88C306A
:1009880023F08073C4F88C30FFF79CFFFFF7A2FFB9
:10099800094B0001C0B283F8230010BD003C02409F
:1009A80000700040003802400080BFFF041940007A
:1009B80000E1F50510E000E000ED00E0394B07B577
:1009C8005A6C42F480425A645A6C02F48042019292
:1009D800019A1A6C42F080521A641B6C324A03F076
:1009E80080530093009BD168304B21F4E0610904E7
:1009F800090C0B43D360FFF765FFFFF76BFF00019E
:100A0800C0B21076FFF75EFFFFF764FF0001C0B2C7
:100A18005076FFF757FFFFF75DFF0001C0B29076F1
:100A2800FFF750FFFFF756FF0001C0B2D077FFF77E
:100A380049FFFFF74FFF0001C0B282F82000FFF71F
:100A480041FFFFF747FF0001C0B282F82200FFF71D
:100A580039FFFFF73FFF0001C0B282F82300FFF71C
:100A68003BFFFFF7FFFE00F027F800F053F900F016
:100A7800DFF80F4B1A6842F001021A601A6A42F056
:100A880005021A62DA6842F00202DA60094A13685B
:100A980043F040031360A2F50052D36843F02003EB
:100AA800D360FEE70038024000ED00E00003FA05DD
:100AB8000004004000300140224BF0B55A6C224D32
:100AC80042F480525A645B6C93B003F48053002460
:100AD80001938027012602A92846019B04940594C6
:100AE800069402970396FFF793FB6023AF61029386
:100AF800022303930323049302A90523284605949C
:100B080006940793FFF784FB4FF4827309934FF41D
:100B1800006308940A930B940E940F944FF4007397
:100B28000A4C0D934FF40053109308A90A2320464A
:100B380011930C96FFF77CFC636823F01003636045
:100B480013B0F0BD00380240000002400030014000
:100B5800064B1A4699688907FCD5FF21D960936826
:100B6800DB07FCD5D06880B2704700BF0030014079
:100B78007047FEE7FEE7FEE7FEE7704770477047FD
:100B88007047000038B50B4B1B699B0711D50A4C01
:100B98002588FFF7DDFF094B23F81500238842F26B
:100BA8000F7293429CBF01332380024B6FF0020205
:100BB8001A6138BD000400402000002082EA0020AD
:100BC800064A13689B0607D505494B6983F001035C
:100BD8004B616FF020031360704700BF00100140A5
:100BE800000002400F49D1F8883043F47003C1F87F
:100BF80088300D4B1A68002042F001021A60986094
:100C08001A6822F0847222F480321A60074A5A6005
:100C18001A6822F480221A60D8604FF000638B6053
:100C2800704700BF00ED00E000380240103000249B
:100C3800324B2DE9F0411A6C314D324E42F002022E
:100C48001A641B6C94B003F002030093009B2E4BB4
:100C5800DB682E4B00244FF0005283F81D4301A996
:100C68001A60284669230393ADF80440029404945B
:100C7800FFF70EFCAB6823F48043012723F007033A
:100C8800AB604FF046080CAA394628460C940D97DD
:100C98000E94CDF83C801094FFF75EFCAB6923F00E
:100CA8000403AB6173680D9743F4006373600CAA87
:100CB80060234FF4805128460C930E94CDF83C8065
:100CC800FFF74AFC7368124823F4806373606B680B
:100CD80023F070036B60AB6823F08003AB601223D2
:100CE800069306A902230793089409940A940B9380
:100CF800FFF78EFA14B0BDE8F08100BF003802405B
:100D0800000400401804004000ED00E000E100E0AD
:100D180000040240214B22485A6C10B542F01002E0
:100D28005A645B6C8EB003F010030093009BC023E1
:100D380001930223029303230393012300240593C1
:100D480001A9072304940693FFF762FA154BDB68A1
:100D5800154B202283F825435A60089409940A9475
:100D68000C940D9404F1804404F588344FF47A33DC
:100D7800079307A90C2320460B93FFF7C5FC2369AB
:100D880023F490432361636923F02A036361E368D2
:100D980043F40053E3600EB010BD00BF00380240BA
:100DA8000004024000ED00E000E100E0DFF834D08C
:100DB800002103E00C4B5B58435004310B480C4BAB
:100DC80042189A42F6D30B4A02E0002342F8043B49
:100DD800094B9A42F9D3FFF705FF00F011F8FFF726
:100DE800EDFD704700000520880E00080000002077
:100DF8000400002004000020A4380120FEE70000C1
:100E080070B50D4E0D4CA41BA4100025A54209D1A8
:100E18000B4E0C4C00F018F8A41BA4100025A5429A
:100E280005D170BD56F8253098470135EEE756F8DC
:100E3800253098470135F2E7800E0008800E00083B
:100E4800800E0008840E0008F8B500BFF8BC08BC86
:100E58009E467047F8B500BFF8BC08BC9E46704770
:100E68000000000000000000010203040607080952
:080E7800000000000102030468
:040E8000FD01000868
:040E8400D901000888
:040E88000024F4004E
:0400000508000DB52D
:00000001FF
